:03000000020A12DF
:0C0A1200787FE4F6D8FD758122020A59B5
:0C0C3A002046726571203A2000487A00C4
:0C0C2D00021F0000021D00000221000058
:100B5B00120BB9120BD7E51E65207004E51D651F3E
:100B6B00601F120C567BFF7A0C793A120B94AE1D58
:100B7B00AF1EE4FCFD1209597BFF7A0C7943120B73
:090B8B0094851D1F851E2080CDFC
:100BB9007F38120C0D7F14120BF47F0F120C0D7F6E
:0E0BC90014120BF47F01120C0D7F14020BF4BA
:100B94008B088A09890AAB08AA09A90A1208006005
:100BA40013050AE50A7002050914F9120800FF1278
:050BB4000C1D80E2228F
:040B0B008E178F189A
:100B0F00E4751C01F51BF51AF519F582F583E51847
:100B1F0024FFFFE51734FFFEC3E5829FEE6480F8E4
:100B2F00E583648098501CAF1CAE1BAD1AAC19E462
:100B3F007B0AFAF9F812082B8F1C8E1B8D1A8C1951
:0B0B4F00A380CBAF1CAE1BAD1AAC198D
:010B5A002278
:100959008F0B8E0A8D098C08EC4D4E4F7003020ADD
:010969000C81
:10096A00E4F50CF50D802CE4FFFEFDFCAB11AA109A
:10097A00A90FA80ED31209484023050DE50D7002F0
:10098A00050CAF11AE10AD0FAC0EE47B0AFAF9F804
:10099A001208B68F118E108D0F8C0E80CAD3E50DFA
:0A09AA009400E50C64809480405D29
:1009B400AF0DAE0C120B0B8F158E148D138C12AB66
:1009C40015AA14A913A812AF0BAE0AAD09AC0812EC
:1009D40008B6EF2430F516FF120C1DAF0BAE0AADAE
:1009E40009AC08AB15AA14A913A8121208B6AC00D6
:1009F400AD01AE02AF038F0B8E0A8D098C08E50D95
:060A0400150D709F150C9A
:020A0A00809BCF
:060A0C007F30120C1D22D8
:050C56007F01020C0DFE
:100BD7007BB07D3C7F50120C46E4FBFD7F01120C7D
:0D0BE7004E120C5E120C61120C64020C67C1
:03000B00020A9E48
:100A9E00C0E0C0F0C083C082C0D075D000C000C01E
:100AAE0001C002C003C004C005C006C007120C6A14
:100ABE00120C6DAF8DEFAD8BF521EDF522AE21FF52
:100ACE007C007D141208198E1D8F1E7BB07D3C7F1D
:100ADE0050120C46E4FBFD7F01120C4E120C6412F8
:100AEE000C67D007D006D005D004D003D002D001B9
:0D0AFE00D000D0D0D082D083D0F0D0E03234
:030C5B007F732282
:100C0D00C2A2C2A08F90D2A17F14120BF4C2A12256
:100C1D00C2A2D2A08F90D2A17F14120BF4C2A12236
:100BF400E4FDFCE4FEEED39F50030E80F80DBD002F
:080C0400010CED64044C70EBDF
:010C0C0022C5
:030C5E00D2AF22F0
:030C6100D2A922F3
:080C4600EF42898D8C8B8A229C
:080C4E00EF42898D8D8B8B2292
:030C6400D28C220D
:030C6700D28E2208
:030C6A00C28C2217
:030C6D00C28E2212
:100A1E00020B5BE493A3F8E493A34003F68001F288
:100A2E0008DFF48029E493A3F85407240CC8C333D9
:100A3E00C4540F4420C8834004F456800146F6DFA8
:100A4E00E4800B0102040810204080900C2DE47EFF
:100A5E00019360BCA3FF543F30E509541FFEE4939D
:100A6E00A360010ECF54C025E060A840B8E493A364
:100A7E00FAE493A3F8E493A3C8C582C8CAC583CA8F
:100A8E00F0A3C8C582C8CAC583CADFE9DEE780BE47
:010C390000BA
:10080000BB010689828A83E0225002E722BBFE02F6
:09081000E32289828A83E4932229
:10081900EF8DF0A4A8F0CF8CF0A428CE8DF0A42EF3
:02082900FE22AD
:10082B00E88FF0A4CC8BF0A42CFCE98EF0A42CFC6C
:10083B008AF0EDA42CFCEA8EF0A4CDA8F08BF0A4EA
:10084B002DCC3825F0FDE98FF0A42CCD35F0FCEB49
:10085B008EF0A4FEA9F0EB8FF0A4CFC5F02ECD390E
:0F086B00FEE43CFCEAA42DCE35F0FDE43CFC227B
:10087A0075F008758200EF2FFFEE33FECD33CDCC35
:10088A0033CCC58233C5829BED9AEC99E5829840B8
:10089A000CF582EE9BFEED9AFDEC99FC0FD5F0D695
:1008AA00E4CEFBE4CDFAE4CCF9A88222B800C1B9BF
:1008BA000059BA002DEC8BF084CFCECDFCE5F0CBFD
:1008CA00F97818EF2FFFEE33FEED33FDEC33FCEB36
:1008DA0033FB10D703994004EB99FB0FD8E5E4F9F1
:1008EA00FA227818EF2FFFEE33FEED33FDEC33FCDE
:1008FA00C933C910D7059BE99A4007EC9BFCE99AD2
:10090A00F90FD8E0E4C9FAE4CCFB2275F010EF2F16
:10091A00FFEE33FEED33FDCC33CCC833C810D70716
:10092A009BEC9AE899400AED9BFDEC9AFCE899F851
:0E093A000FD5F0DAE4CDFBE4CCFAE4C8F922E4
:10094800EB9FF5F0EA9E42F0E99D42F0E89C45F005
:01095800227C
:00000001FF
