:03000000020A12DF
:0C0A1200787FE4F6D8FD75812A020A59AD
:0A0C1900467265713A2000487A0027
:0C0BF800021F0000022100000227000084
:060BA4008F90D2A17F1426
:100BAA00E4FDFCE4FEEED39F50030E80F80DBD0079
:080BBA00010CED64044C70EB2A
:010BC2002210
:0A0C0500C2A2C2A0120BA4C2A122D9
:0A0C0F00C2A2D2A0120BA4C2A122BF
:100BC3007F38120C057F14120BAA7F0F120C057FBE
:0E0BD30014120BAA7F01120C057F14020BAA4C
:100B3E008B0A8A0B890CAB0AAA0BA90C120800604F
:100B4E0013050CE50C7002050B14F9120800FF12C8
:050B5E000C0F80E222F3
:040A9E008E198F1A04
:100AA200E4751E01F51DF51CF51BF582F583E51AAB
:100AB20024FFFFE51934FFFEC3E5829FEE6480F850
:100AC200E583648098501CAF1EAE1DAD1CAC1BE4C8
:100AD2007B0AFAF9F812082B8F1E8E1D8D1C8C1BB7
:0B0AE200A380CBAF1EAE1DAD1CAC1BF3
:010AED0022E6
:100959008F0D8E0C8D0B8C0AEC4D4E4F7003020AD5
:010969000C81
:10096A00E4F50EF50F802CE4FFFEFDFCAB13AA1292
:10097A00A911A810D31209484023050FE50F7002E8
:10098A00050EAF13AE12AD11AC10E47B0AFAF9F8FA
:10099A001208B68F138E128D118C1080CAD3E50FF0
:0A09AA009400E50E64809480405D27
:1009B400AF0FAE0E120A9E8F178E168D158C14ABC8
:1009C40017AA16A915A814AF0DAE0CAD0BAC0A12DC
:1009D40008B6EF2430F518FF120C0FAF0DAE0CADB6
:1009E4000BAC0AAB17AA16A915A8141208B6AC00CA
:1009F400AD01AE02AF038F0D8E0C8D0B8C0AE50F8B
:060A0400150F709F150E96
:020A0A00809BCF
:060A0C007F30120C0F22E6
:03000B00020AEEF8
:100AEE00C0E0C0F0C0D075D000C000C004C005C0CA
:100AFE0006C007C28CC28EAF8DEFAD8BF51FEDF524
:100B0E0020AE1FFF7C007D141208198E218F2275D6
:100B1E008C3C758AB0758D00758B00D28CD28ED0C0
:100B2E0007D006D005D004D000D0D0D0F0D0E0321F
:100BE100758951758C3C758AB0E4F58DF58BD2A968
:070BF100D2AFD28CD28E229C
:100B84008E088F097BFF7A0C7919120B3EAE08AFE1
:100B940009E4FCFD1209597BFF7A0C7920020B3E13
:100B6300120BC3120BE1E52265287004E52165270A
:100B73006007AF22AE21120B8485212785222880AE
:010B8300E58C
:100A1E00020B63E493A3F8E493A34003F68001F280
:100A2E0008DFF48029E493A3F85407240CC8C333D9
:100A3E00C4540F4420C8834004F456800146F6DFA8
:100A4E00E4800B0102040810204080900BF8E47E35
:100A5E00019360BCA3FF543F30E509541FFEE4939D
:100A6E00A360010ECF54C025E060A840B8E493A364
:100A7E00FAE493A3F8E493A3C8C582C8CAC583CA8F
:100A8E00F0A3C8C582C8CAC583CADFE9DEE780BE47
:010C040000EF
:10080000BB010689828A83E0225002E722BBFE02F6
:09081000E32289828A83E4932229
:10081900EF8DF0A4A8F0CF8CF0A428CE8DF0A42EF3
:02082900FE22AD
:10082B00E88FF0A4CC8BF0A42CFCE98EF0A42CFC6C
:10083B008AF0EDA42CFCEA8EF0A4CDA8F08BF0A4EA
:10084B002DCC3825F0FDE98FF0A42CCD35F0FCEB49
:10085B008EF0A4FEA9F0EB8FF0A4CFC5F02ECD390E
:0F086B00FEE43CFCEAA42DCE35F0FDE43CFC227B
:10087A0075F008758200EF2FFFEE33FECD33CDCC35
:10088A0033CCC58233C5829BED9AEC99E5829840B8
:10089A000CF582EE9BFEED9AFDEC99FC0FD5F0D695
:1008AA00E4CEFBE4CDFAE4CCF9A88222B800C1B9BF
:1008BA000059BA002DEC8BF084CFCECDFCE5F0CBFD
:1008CA00F97818EF2FFFEE33FEED33FDEC33FCEB36
:1008DA0033FB10D703994004EB99FB0FD8E5E4F9F1
:1008EA00FA227818EF2FFFEE33FEED33FDEC33FCDE
:1008FA00C933C910D7059BE99A4007EC9BFCE99AD2
:10090A00F90FD8E0E4C9FAE4CCFB2275F010EF2F16
:10091A00FFEE33FEED33FDCC33CCC833C810D70716
:10092A009BEC9AE899400AED9BFDEC9AFCE899F851
:0E093A000FD5F0DAE4CDFBE4CCFAE4C8F922E4
:10094800EB9FF5F0EA9E42F0E99D42F0E89C45F005
:01095800227C
:00000001FF
