:03000000020A12DF
:0C0A1200787FE4F6D8FD758128020A59AF
:070C0500467265713A200000
:080BFC00021F000002210000AD
:060B69008F90D2A17F1461
:100B6F00E4FDFCE4FEEED39F50030E80F80DBD00B4
:080B7F00010CED64044C70EB65
:010B8700224B
:0A0BE800C2A3C2A0120B69C2A12231
:0A0BF200C2A3D2A0120B69C2A12217
:100B88007F38120BE87F14120B6F7F0F120BE87F70
:0E0B980014120B6F7F01120BE87F14020B6F1B
:100B44008B0A8A0B890CAB0AAA0BA90C1208006049
:100B540013050CE50C7002050B14F9120800FF12C2
:050B64000BF280E2220B
:040AF4008E198F1AAE
:100AF800E4751E01F51DF51CF51BF582F583E51A55
:100B080024FFFFE51934FFFEC3E5829FEE6480F8F9
:100B1800E583648098501CAF1EAE1DAD1CAC1BE471
:100B28007B0AFAF9F812082B8F1E8E1D8D1C8C1B60
:0B0B3800A380CBAF1EAE1DAD1CAC1B9C
:010B4300228F
:100959008F0D8E0C8D0B8C0AEC4D4E4F7003020AD5
:010969000C81
:10096A00E4F50EF50F802CE4FFFEFDFCAB13AA1292
:10097A00A911A810D31209484023050FE50F7002E8
:10098A00050EAF13AE12AD11AC10E47B0AFAF9F8FA
:10099A001208B68F138E128D118C1080CAD3E50FF0
:0A09AA009400E50E64809480405D27
:1009B400AF0FAE0E120AF48F178E168D158C14AB72
:1009C40017AA16A915A814AF0DAE0CAD0BAC0A12DC
:1009D40008B6EF2430F518FF120BF2AF0DAE0CADD4
:1009E4000BAC0AAB17AA16A915A8141208B6AC00CA
:1009F400AD01AE02AF038F0D8E0C8D0B8C0AE50F8B
:060A0400150F709F150E96
:020A0A00809BCF
:060A0C007F30120BF22204
:03000B00020A9E48
:100A9E00C0E0C0F0C0D075D000C000C004C005C01A
:100AAE0006C007C28CC28EAF8D751F008F20E52049
:100ABE00AD8BF51FEDF520AE1FFF7C007D141208E7
:100ACE00198E218F22758C3C758AB0758D00758BB1
:100ADE0000D28CD28ED007D006D005D004D000D054
:060AEE00D0D0F0D0E03290
:100BA600758951758C4B758AFDE4F58DF58BD2A947
:070BB600D2AFD28CD28E22D7
:100BBD008E088F097BFF7A0C7905120B44AE08AFB6
:070BCD0009E4FCFD020959D7
:100BD400120B88120BA6AF22AE21120BBD7F64123A
:040BE4000B6F80F221
:100A1E00020BD4E493A3F8E493A34003F68001F20F
:100A2E0008DFF48029E493A3F85407240CC8C333D9
:100A3E00C4540F4420C8834004F456800146F6DFA8
:100A4E00E4800B0102040810204080900BFCE47E31
:100A5E00019360BCA3FF543F30E509541FFEE4939D
:100A6E00A360010ECF54C025E060A840B8E493A364
:100A7E00FAE493A3F8E493A3C8C582C8CAC583CA8F
:100A8E00F0A3C8C582C8CAC583CADFE9DEE780BE47
:010C040000EF
:10080000BB010689828A83E0225002E722BBFE02F6
:09081000E32289828A83E4932229
:10081900EF8DF0A4A8F0CF8CF0A428CE8DF0A42EF3
:02082900FE22AD
:10082B00E88FF0A4CC8BF0A42CFCE98EF0A42CFC6C
:10083B008AF0EDA42CFCEA8EF0A4CDA8F08BF0A4EA
:10084B002DCC3825F0FDE98FF0A42CCD35F0FCEB49
:10085B008EF0A4FEA9F0EB8FF0A4CFC5F02ECD390E
:0F086B00FEE43CFCEAA42DCE35F0FDE43CFC227B
:10087A0075F008758200EF2FFFEE33FECD33CDCC35
:10088A0033CCC58233C5829BED9AEC99E5829840B8
:10089A000CF582EE9BFEED9AFDEC99FC0FD5F0D695
:1008AA00E4CEFBE4CDFAE4CCF9A88222B800C1B9BF
:1008BA000059BA002DEC8BF084CFCECDFCE5F0CBFD
:1008CA00F97818EF2FFFEE33FEED33FDEC33FCEB36
:1008DA0033FB10D703994004EB99FB0FD8E5E4F9F1
:1008EA00FA227818EF2FFFEE33FEED33FDEC33FCDE
:1008FA00C933C910D7059BE99A4007EC9BFCE99AD2
:10090A00F90FD8E0E4C9FAE4CCFB2275F010EF2F16
:10091A00FFEE33FEED33FDCC33CCC833C810D70716
:10092A009BEC9AE899400AED9BFDEC9AFCE899F851
:0E093A000FD5F0DAE4CDFBE4CCFAE4C8F922E4
:10094800EB9FF5F0EA9E42F0E99D42F0E89C45F005
:01095800227C
:00000001FF
